{
	"data": {
		"bytecode": {
			"linkReferences": {},
			"object": "6080604052348015600e575f5ffd5b506109cd8061001c5f395ff3fe608060405234801561000f575f5ffd5b506004361061003f575f3560e01c806301031c1a1461004357806342257b3114610073578063c6baff55146100a3575b5f5ffd5b61005d6004803603810190610058919061049a565b6100bf565b60405161006a9190610541565b60405180910390f35b61008d60048036038101906100889190610594565b6100e8565b60405161009a9190610541565b60405180910390f35b6100bd60048036038101906100b891906105bf565b610285565b005b6060816040516020016100d29190610679565b6040516020818303038152906040529050919050565b60605f5f90505b6001805490508110156101ec5782600182815481106101115761011061069e565b5b905f5260205f20906003020160010154036101df576101d76001828154811061013d5761013c61069e565b5b905f5260205f2090600302015f018054610156906106f8565b80601f0160208091040260200160405190810160405280929190818152602001828054610182906106f8565b80156101cd5780601f106101a4576101008083540402835291602001916101cd565b820191905f5260205f20905b8154815290600101906020018083116101b057829003601f168201915b50505050506100bf565b915050610280565b80806001019150506100ef565b5061027d5f80546101fc906106f8565b80601f0160208091040260200160405190810160405280929190818152602001828054610228906106f8565b80156102735780601f1061024a57610100808354040283529160200191610273565b820191905f5260205f20905b81548152906001019060200180831161025657829003601f168201915b50505050506100bf565b90505b919050565b5f60405180606001604052808481526020018381526020013373ffffffffffffffffffffffffffffffffffffffff168152509050600181908060018154018082558091505060019003905f5260205f2090600302015f909190919091505f820151815f0190816102f591906108c8565b50602082015181600101556040820151816002015f6101000a81548173ffffffffffffffffffffffffffffffffffffffff021916908373ffffffffffffffffffffffffffffffffffffffff1602179055505050505050565b5f604051905090565b5f5ffd5b5f5ffd5b5f5ffd5b5f5ffd5b5f601f19601f8301169050919050565b7f4e487b71000000000000000000000000000000000000000000000000000000005f52604160045260245ffd5b6103ac82610366565b810181811067ffffffffffffffff821117156103cb576103ca610376565b5b80604052505050565b5f6103dd61034d565b90506103e982826103a3565b919050565b5f67ffffffffffffffff82111561040857610407610376565b5b61041182610366565b9050602081019050919050565b828183375f83830152505050565b5f61043e610439846103ee565b6103d4565b90508281526020810184848401111561045a57610459610362565b5b61046584828561041e565b509392505050565b5f82601f8301126104815761048061035e565b5b813561049184826020860161042c565b91505092915050565b5f602082840312156104af576104ae610356565b5b5f82013567ffffffffffffffff8111156104cc576104cb61035a565b5b6104d88482850161046d565b91505092915050565b5f81519050919050565b5f82825260208201905092915050565b8281835e5f83830152505050565b5f610513826104e1565b61051d81856104eb565b935061052d8185602086016104fb565b61053681610366565b840191505092915050565b5f6020820190508181035f8301526105598184610509565b905092915050565b5f819050919050565b61057381610561565b811461057d575f5ffd5b50565b5f8135905061058e8161056a565b92915050565b5f602082840312156105a9576105a8610356565b5b5f6105b684828501610580565b91505092915050565b5f5f604083850312156105d5576105d4610356565b5b5f83013567ffffffffffffffff8111156105f2576105f161035a565b5b6105fe8582860161046d565b925050602061060f85828601610580565b9150509250929050565b5f81905092915050565b5f61062d826104e1565b6106378185610619565b93506106478185602086016104fb565b80840191505092915050565b7f2077656c636f6d65000000000000000000000000000000000000000000000000815250565b5f6106848284610623565b915061068f82610653565b60088201915081905092915050565b7f4e487b71000000000000000000000000000000000000000000000000000000005f52603260045260245ffd5b7f4e487b71000000000000000000000000000000000000000000000000000000005f52602260045260245ffd5b5f600282049050600182168061070f57607f821691505b602082108103610722576107216106cb565b5b50919050565b5f819050815f5260205f209050919050565b5f6020601f8301049050919050565b5f82821b905092915050565b5f600883026107847fffffffffffffffffffffffffffffffffffffffffffffffffffffffffffffffff82610749565b61078e8683610749565b95508019841693508086168417925050509392505050565b5f819050919050565b5f6107c96107c46107bf84610561565b6107a6565b610561565b9050919050565b5f819050919050565b6107e2836107af565b6107f66107ee826107d0565b848454610755565b825550505050565b5f5f905090565b61080d6107fe565b6108188184846107d9565b505050565b5b8181101561083b576108305f82610805565b60018101905061081e565b5050565b601f8211156108805761085181610728565b61085a8461073a565b81016020851015610869578190505b61087d6108758561073a565b83018261081d565b50505b505050565b5f82821c905092915050565b5f6108a05f1984600802610885565b1980831691505092915050565b5f6108b88383610891565b9150826002028217905092915050565b6108d1826104e1565b67ffffffffffffffff8111156108ea576108e9610376565b5b6108f482546106f8565b6108ff82828561083f565b5f60209050601f831160018114610930575f841561091e578287015190505b61092885826108ad565b86555061098f565b601f19841661093e86610728565b5f5b8281101561096557848901518255600182019150602085019450602081019050610940565b86831015610982578489015161097e601f891682610891565b8355505b6001600288020188555050505b50505050505056fea26469706673582212203b6ada74c39e2a9aabb3602676bdfd8b72033acb0c071026aadfd06118ecdca264736f6c634300081e0033",
			"opcodes": "PUSH1 0x80 PUSH1 0x40 MSTORE CALLVALUE DUP1 ISZERO PUSH1 0xE JUMPI PUSH0 PUSH0 REVERT JUMPDEST POP PUSH2 0x9CD DUP1 PUSH2 0x1C PUSH0 CODECOPY PUSH0 RETURN INVALID PUSH1 0x80 PUSH1 0x40 MSTORE CALLVALUE DUP1 ISZERO PUSH2 0xF JUMPI PUSH0 PUSH0 REVERT JUMPDEST POP PUSH1 0x4 CALLDATASIZE LT PUSH2 0x3F JUMPI PUSH0 CALLDATALOAD PUSH1 0xE0 SHR DUP1 PUSH4 0x1031C1A EQ PUSH2 0x43 JUMPI DUP1 PUSH4 0x42257B31 EQ PUSH2 0x73 JUMPI DUP1 PUSH4 0xC6BAFF55 EQ PUSH2 0xA3 JUMPI JUMPDEST PUSH0 PUSH0 REVERT JUMPDEST PUSH2 0x5D PUSH1 0x4 DUP1 CALLDATASIZE SUB DUP2 ADD SWAP1 PUSH2 0x58 SWAP2 SWAP1 PUSH2 0x49A JUMP JUMPDEST PUSH2 0xBF JUMP JUMPDEST PUSH1 0x40 MLOAD PUSH2 0x6A SWAP2 SWAP1 PUSH2 0x541 JUMP JUMPDEST PUSH1 0x40 MLOAD DUP1 SWAP2 SUB SWAP1 RETURN JUMPDEST PUSH2 0x8D PUSH1 0x4 DUP1 CALLDATASIZE SUB DUP2 ADD SWAP1 PUSH2 0x88 SWAP2 SWAP1 PUSH2 0x594 JUMP JUMPDEST PUSH2 0xE8 JUMP JUMPDEST PUSH1 0x40 MLOAD PUSH2 0x9A SWAP2 SWAP1 PUSH2 0x541 JUMP JUMPDEST PUSH1 0x40 MLOAD DUP1 SWAP2 SUB SWAP1 RETURN JUMPDEST PUSH2 0xBD PUSH1 0x4 DUP1 CALLDATASIZE SUB DUP2 ADD SWAP1 PUSH2 0xB8 SWAP2 SWAP1 PUSH2 0x5BF JUMP JUMPDEST PUSH2 0x285 JUMP JUMPDEST STOP JUMPDEST PUSH1 0x60 DUP2 PUSH1 0x40 MLOAD PUSH1 0x20 ADD PUSH2 0xD2 SWAP2 SWAP1 PUSH2 0x679 JUMP JUMPDEST PUSH1 0x40 MLOAD PUSH1 0x20 DUP2 DUP4 SUB SUB DUP2 MSTORE SWAP1 PUSH1 0x40 MSTORE SWAP1 POP SWAP2 SWAP1 POP JUMP JUMPDEST PUSH1 0x60 PUSH0 PUSH0 SWAP1 POP JUMPDEST PUSH1 0x1 DUP1 SLOAD SWAP1 POP DUP2 LT ISZERO PUSH2 0x1EC JUMPI DUP3 PUSH1 0x1 DUP3 DUP2 SLOAD DUP2 LT PUSH2 0x111 JUMPI PUSH2 0x110 PUSH2 0x69E JUMP JUMPDEST JUMPDEST SWAP1 PUSH0 MSTORE PUSH1 0x20 PUSH0 KECCAK256 SWAP1 PUSH1 0x3 MUL ADD PUSH1 0x1 ADD SLOAD SUB PUSH2 0x1DF JUMPI PUSH2 0x1D7 PUSH1 0x1 DUP3 DUP2 SLOAD DUP2 LT PUSH2 0x13D JUMPI PUSH2 0x13C PUSH2 0x69E JUMP JUMPDEST JUMPDEST SWAP1 PUSH0 MSTORE PUSH1 0x20 PUSH0 KECCAK256 SWAP1 PUSH1 0x3 MUL ADD PUSH0 ADD DUP1 SLOAD PUSH2 0x156 SWAP1 PUSH2 0x6F8 JUMP JUMPDEST DUP1 PUSH1 0x1F ADD PUSH1 0x20 DUP1 SWAP2 DIV MUL PUSH1 0x20 ADD PUSH1 0x40 MLOAD SWAP1 DUP2 ADD PUSH1 0x40 MSTORE DUP1 SWAP3 SWAP2 SWAP1 DUP2 DUP2 MSTORE PUSH1 0x20 ADD DUP3 DUP1 SLOAD PUSH2 0x182 SWAP1 PUSH2 0x6F8 JUMP JUMPDEST DUP1 ISZERO PUSH2 0x1CD JUMPI DUP1 PUSH1 0x1F LT PUSH2 0x1A4 JUMPI PUSH2 0x100 DUP1 DUP4 SLOAD DIV MUL DUP4 MSTORE SWAP2 PUSH1 0x20 ADD SWAP2 PUSH2 0x1CD JUMP JUMPDEST DUP3 ADD SWAP2 SWAP1 PUSH0 MSTORE PUSH1 0x20 PUSH0 KECCAK256 SWAP1 JUMPDEST DUP2 SLOAD DUP2 MSTORE SWAP1 PUSH1 0x1 ADD SWAP1 PUSH1 0x20 ADD DUP1 DUP4 GT PUSH2 0x1B0 JUMPI DUP3 SWAP1 SUB PUSH1 0x1F AND DUP3 ADD SWAP2 JUMPDEST POP POP POP POP POP PUSH2 0xBF JUMP JUMPDEST SWAP2 POP POP PUSH2 0x280 JUMP JUMPDEST DUP1 DUP1 PUSH1 0x1 ADD SWAP2 POP POP PUSH2 0xEF JUMP JUMPDEST POP PUSH2 0x27D PUSH0 DUP1 SLOAD PUSH2 0x1FC SWAP1 PUSH2 0x6F8 JUMP JUMPDEST DUP1 PUSH1 0x1F ADD PUSH1 0x20 DUP1 SWAP2 DIV MUL PUSH1 0x20 ADD PUSH1 0x40 MLOAD SWAP1 DUP2 ADD PUSH1 0x40 MSTORE DUP1 SWAP3 SWAP2 SWAP1 DUP2 DUP2 MSTORE PUSH1 0x20 ADD DUP3 DUP1 SLOAD PUSH2 0x228 SWAP1 PUSH2 0x6F8 JUMP JUMPDEST DUP1 ISZERO PUSH2 0x273 JUMPI DUP1 PUSH1 0x1F LT PUSH2 0x24A JUMPI PUSH2 0x100 DUP1 DUP4 SLOAD DIV MUL DUP4 MSTORE SWAP2 PUSH1 0x20 ADD SWAP2 PUSH2 0x273 JUMP JUMPDEST DUP3 ADD SWAP2 SWAP1 PUSH0 MSTORE PUSH1 0x20 PUSH0 KECCAK256 SWAP1 JUMPDEST DUP2 SLOAD DUP2 MSTORE SWAP1 PUSH1 0x1 ADD SWAP1 PUSH1 0x20 ADD DUP1 DUP4 GT PUSH2 0x256 JUMPI DUP3 SWAP1 SUB PUSH1 0x1F AND DUP3 ADD SWAP2 JUMPDEST POP POP POP POP POP PUSH2 0xBF JUMP JUMPDEST SWAP1 POP JUMPDEST SWAP2 SWAP1 POP JUMP JUMPDEST PUSH0 PUSH1 0x40 MLOAD DUP1 PUSH1 0x60 ADD PUSH1 0x40 MSTORE DUP1 DUP5 DUP2 MSTORE PUSH1 0x20 ADD DUP4 DUP2 MSTORE PUSH1 0x20 ADD CALLER PUSH20 0xFFFFFFFFFFFFFFFFFFFFFFFFFFFFFFFFFFFFFFFF AND DUP2 MSTORE POP SWAP1 POP PUSH1 0x1 DUP2 SWAP1 DUP1 PUSH1 0x1 DUP2 SLOAD ADD DUP1 DUP3 SSTORE DUP1 SWAP2 POP POP PUSH1 0x1 SWAP1 SUB SWAP1 PUSH0 MSTORE PUSH1 0x20 PUSH0 KECCAK256 SWAP1 PUSH1 0x3 MUL ADD PUSH0 SWAP1 SWAP2 SWAP1 SWAP2 SWAP1 SWAP2 POP PUSH0 DUP3 ADD MLOAD DUP2 PUSH0 ADD SWAP1 DUP2 PUSH2 0x2F5 SWAP2 SWAP1 PUSH2 0x8C8 JUMP JUMPDEST POP PUSH1 0x20 DUP3 ADD MLOAD DUP2 PUSH1 0x1 ADD SSTORE PUSH1 0x40 DUP3 ADD MLOAD DUP2 PUSH1 0x2 ADD PUSH0 PUSH2 0x100 EXP DUP2 SLOAD DUP2 PUSH20 0xFFFFFFFFFFFFFFFFFFFFFFFFFFFFFFFFFFFFFFFF MUL NOT AND SWAP1 DUP4 PUSH20 0xFFFFFFFFFFFFFFFFFFFFFFFFFFFFFFFFFFFFFFFF AND MUL OR SWAP1 SSTORE POP POP POP POP POP POP JUMP JUMPDEST PUSH0 PUSH1 0x40 MLOAD SWAP1 POP SWAP1 JUMP JUMPDEST PUSH0 PUSH0 REVERT JUMPDEST PUSH0 PUSH0 REVERT JUMPDEST PUSH0 PUSH0 REVERT JUMPDEST PUSH0 PUSH0 REVERT JUMPDEST PUSH0 PUSH1 0x1F NOT PUSH1 0x1F DUP4 ADD AND SWAP1 POP SWAP2 SWAP1 POP JUMP JUMPDEST PUSH32 0x4E487B7100000000000000000000000000000000000000000000000000000000 PUSH0 MSTORE PUSH1 0x41 PUSH1 0x4 MSTORE PUSH1 0x24 PUSH0 REVERT JUMPDEST PUSH2 0x3AC DUP3 PUSH2 0x366 JUMP JUMPDEST DUP2 ADD DUP2 DUP2 LT PUSH8 0xFFFFFFFFFFFFFFFF DUP3 GT OR ISZERO PUSH2 0x3CB JUMPI PUSH2 0x3CA PUSH2 0x376 JUMP JUMPDEST JUMPDEST DUP1 PUSH1 0x40 MSTORE POP POP POP JUMP JUMPDEST PUSH0 PUSH2 0x3DD PUSH2 0x34D JUMP JUMPDEST SWAP1 POP PUSH2 0x3E9 DUP3 DUP3 PUSH2 0x3A3 JUMP JUMPDEST SWAP2 SWAP1 POP JUMP JUMPDEST PUSH0 PUSH8 0xFFFFFFFFFFFFFFFF DUP3 GT ISZERO PUSH2 0x408 JUMPI PUSH2 0x407 PUSH2 0x376 JUMP JUMPDEST JUMPDEST PUSH2 0x411 DUP3 PUSH2 0x366 JUMP JUMPDEST SWAP1 POP PUSH1 0x20 DUP2 ADD SWAP1 POP SWAP2 SWAP1 POP JUMP JUMPDEST DUP3 DUP2 DUP4 CALLDATACOPY PUSH0 DUP4 DUP4 ADD MSTORE POP POP POP JUMP JUMPDEST PUSH0 PUSH2 0x43E PUSH2 0x439 DUP5 PUSH2 0x3EE JUMP JUMPDEST PUSH2 0x3D4 JUMP JUMPDEST SWAP1 POP DUP3 DUP2 MSTORE PUSH1 0x20 DUP2 ADD DUP5 DUP5 DUP5 ADD GT ISZERO PUSH2 0x45A JUMPI PUSH2 0x459 PUSH2 0x362 JUMP JUMPDEST JUMPDEST PUSH2 0x465 DUP5 DUP3 DUP6 PUSH2 0x41E JUMP JUMPDEST POP SWAP4 SWAP3 POP POP POP JUMP JUMPDEST PUSH0 DUP3 PUSH1 0x1F DUP4 ADD SLT PUSH2 0x481 JUMPI PUSH2 0x480 PUSH2 0x35E JUMP JUMPDEST JUMPDEST DUP2 CALLDATALOAD PUSH2 0x491 DUP5 DUP3 PUSH1 0x20 DUP7 ADD PUSH2 0x42C JUMP JUMPDEST SWAP2 POP POP SWAP3 SWAP2 POP POP JUMP JUMPDEST PUSH0 PUSH1 0x20 DUP3 DUP5 SUB SLT ISZERO PUSH2 0x4AF JUMPI PUSH2 0x4AE PUSH2 0x356 JUMP JUMPDEST JUMPDEST PUSH0 DUP3 ADD CALLDATALOAD PUSH8 0xFFFFFFFFFFFFFFFF DUP2 GT ISZERO PUSH2 0x4CC JUMPI PUSH2 0x4CB PUSH2 0x35A JUMP JUMPDEST JUMPDEST PUSH2 0x4D8 DUP5 DUP3 DUP6 ADD PUSH2 0x46D JUMP JUMPDEST SWAP2 POP POP SWAP3 SWAP2 POP POP JUMP JUMPDEST PUSH0 DUP2 MLOAD SWAP1 POP SWAP2 SWAP1 POP JUMP JUMPDEST PUSH0 DUP3 DUP3 MSTORE PUSH1 0x20 DUP3 ADD SWAP1 POP SWAP3 SWAP2 POP POP JUMP JUMPDEST DUP3 DUP2 DUP4 MCOPY PUSH0 DUP4 DUP4 ADD MSTORE POP POP POP JUMP JUMPDEST PUSH0 PUSH2 0x513 DUP3 PUSH2 0x4E1 JUMP JUMPDEST PUSH2 0x51D DUP2 DUP6 PUSH2 0x4EB JUMP JUMPDEST SWAP4 POP PUSH2 0x52D DUP2 DUP6 PUSH1 0x20 DUP7 ADD PUSH2 0x4FB JUMP JUMPDEST PUSH2 0x536 DUP2 PUSH2 0x366 JUMP JUMPDEST DUP5 ADD SWAP2 POP POP SWAP3 SWAP2 POP POP JUMP JUMPDEST PUSH0 PUSH1 0x20 DUP3 ADD SWAP1 POP DUP2 DUP2 SUB PUSH0 DUP4 ADD MSTORE PUSH2 0x559 DUP2 DUP5 PUSH2 0x509 JUMP JUMPDEST SWAP1 POP SWAP3 SWAP2 POP POP JUMP JUMPDEST PUSH0 DUP2 SWAP1 POP SWAP2 SWAP1 POP JUMP JUMPDEST PUSH2 0x573 DUP2 PUSH2 0x561 JUMP JUMPDEST DUP2 EQ PUSH2 0x57D JUMPI PUSH0 PUSH0 REVERT JUMPDEST POP JUMP JUMPDEST PUSH0 DUP2 CALLDATALOAD SWAP1 POP PUSH2 0x58E DUP2 PUSH2 0x56A JUMP JUMPDEST SWAP3 SWAP2 POP POP JUMP JUMPDEST PUSH0 PUSH1 0x20 DUP3 DUP5 SUB SLT ISZERO PUSH2 0x5A9 JUMPI PUSH2 0x5A8 PUSH2 0x356 JUMP JUMPDEST JUMPDEST PUSH0 PUSH2 0x5B6 DUP5 DUP3 DUP6 ADD PUSH2 0x580 JUMP JUMPDEST SWAP2 POP POP SWAP3 SWAP2 POP POP JUMP JUMPDEST PUSH0 PUSH0 PUSH1 0x40 DUP4 DUP6 SUB SLT ISZERO PUSH2 0x5D5 JUMPI PUSH2 0x5D4 PUSH2 0x356 JUMP JUMPDEST JUMPDEST PUSH0 DUP4 ADD CALLDATALOAD PUSH8 0xFFFFFFFFFFFFFFFF DUP2 GT ISZERO PUSH2 0x5F2 JUMPI PUSH2 0x5F1 PUSH2 0x35A JUMP JUMPDEST JUMPDEST PUSH2 0x5FE DUP6 DUP3 DUP7 ADD PUSH2 0x46D JUMP JUMPDEST SWAP3 POP POP PUSH1 0x20 PUSH2 0x60F DUP6 DUP3 DUP7 ADD PUSH2 0x580 JUMP JUMPDEST SWAP2 POP POP SWAP3 POP SWAP3 SWAP1 POP JUMP JUMPDEST PUSH0 DUP2 SWAP1 POP SWAP3 SWAP2 POP POP JUMP JUMPDEST PUSH0 PUSH2 0x62D DUP3 PUSH2 0x4E1 JUMP JUMPDEST PUSH2 0x637 DUP2 DUP6 PUSH2 0x619 JUMP JUMPDEST SWAP4 POP PUSH2 0x647 DUP2 DUP6 PUSH1 0x20 DUP7 ADD PUSH2 0x4FB JUMP JUMPDEST DUP1 DUP5 ADD SWAP2 POP POP SWAP3 SWAP2 POP POP JUMP JUMPDEST PUSH32 0x2077656C636F6D65000000000000000000000000000000000000000000000000 DUP2 MSTORE POP JUMP JUMPDEST PUSH0 PUSH2 0x684 DUP3 DUP5 PUSH2 0x623 JUMP JUMPDEST SWAP2 POP PUSH2 0x68F DUP3 PUSH2 0x653 JUMP JUMPDEST PUSH1 0x8 DUP3 ADD SWAP2 POP DUP2 SWAP1 POP SWAP3 SWAP2 POP POP JUMP JUMPDEST PUSH32 0x4E487B7100000000000000000000000000000000000000000000000000000000 PUSH0 MSTORE PUSH1 0x32 PUSH1 0x4 MSTORE PUSH1 0x24 PUSH0 REVERT JUMPDEST PUSH32 0x4E487B7100000000000000000000000000000000000000000000000000000000 PUSH0 MSTORE PUSH1 0x22 PUSH1 0x4 MSTORE PUSH1 0x24 PUSH0 REVERT JUMPDEST PUSH0 PUSH1 0x2 DUP3 DIV SWAP1 POP PUSH1 0x1 DUP3 AND DUP1 PUSH2 0x70F JUMPI PUSH1 0x7F DUP3 AND SWAP2 POP JUMPDEST PUSH1 0x20 DUP3 LT DUP2 SUB PUSH2 0x722 JUMPI PUSH2 0x721 PUSH2 0x6CB JUMP JUMPDEST JUMPDEST POP SWAP2 SWAP1 POP JUMP JUMPDEST PUSH0 DUP2 SWAP1 POP DUP2 PUSH0 MSTORE PUSH1 0x20 PUSH0 KECCAK256 SWAP1 POP SWAP2 SWAP1 POP JUMP JUMPDEST PUSH0 PUSH1 0x20 PUSH1 0x1F DUP4 ADD DIV SWAP1 POP SWAP2 SWAP1 POP JUMP JUMPDEST PUSH0 DUP3 DUP3 SHL SWAP1 POP SWAP3 SWAP2 POP POP JUMP JUMPDEST PUSH0 PUSH1 0x8 DUP4 MUL PUSH2 0x784 PUSH32 0xFFFFFFFFFFFFFFFFFFFFFFFFFFFFFFFFFFFFFFFFFFFFFFFFFFFFFFFFFFFFFFFF DUP3 PUSH2 0x749 JUMP JUMPDEST PUSH2 0x78E DUP7 DUP4 PUSH2 0x749 JUMP JUMPDEST SWAP6 POP DUP1 NOT DUP5 AND SWAP4 POP DUP1 DUP7 AND DUP5 OR SWAP3 POP POP POP SWAP4 SWAP3 POP POP POP JUMP JUMPDEST PUSH0 DUP2 SWAP1 POP SWAP2 SWAP1 POP JUMP JUMPDEST PUSH0 PUSH2 0x7C9 PUSH2 0x7C4 PUSH2 0x7BF DUP5 PUSH2 0x561 JUMP JUMPDEST PUSH2 0x7A6 JUMP JUMPDEST PUSH2 0x561 JUMP JUMPDEST SWAP1 POP SWAP2 SWAP1 POP JUMP JUMPDEST PUSH0 DUP2 SWAP1 POP SWAP2 SWAP1 POP JUMP JUMPDEST PUSH2 0x7E2 DUP4 PUSH2 0x7AF JUMP JUMPDEST PUSH2 0x7F6 PUSH2 0x7EE DUP3 PUSH2 0x7D0 JUMP JUMPDEST DUP5 DUP5 SLOAD PUSH2 0x755 JUMP JUMPDEST DUP3 SSTORE POP POP POP POP JUMP JUMPDEST PUSH0 PUSH0 SWAP1 POP SWAP1 JUMP JUMPDEST PUSH2 0x80D PUSH2 0x7FE JUMP JUMPDEST PUSH2 0x818 DUP2 DUP5 DUP5 PUSH2 0x7D9 JUMP JUMPDEST POP POP POP JUMP JUMPDEST JUMPDEST DUP2 DUP2 LT ISZERO PUSH2 0x83B JUMPI PUSH2 0x830 PUSH0 DUP3 PUSH2 0x805 JUMP JUMPDEST PUSH1 0x1 DUP2 ADD SWAP1 POP PUSH2 0x81E JUMP JUMPDEST POP POP JUMP JUMPDEST PUSH1 0x1F DUP3 GT ISZERO PUSH2 0x880 JUMPI PUSH2 0x851 DUP2 PUSH2 0x728 JUMP JUMPDEST PUSH2 0x85A DUP5 PUSH2 0x73A JUMP JUMPDEST DUP2 ADD PUSH1 0x20 DUP6 LT ISZERO PUSH2 0x869 JUMPI DUP2 SWAP1 POP JUMPDEST PUSH2 0x87D PUSH2 0x875 DUP6 PUSH2 0x73A JUMP JUMPDEST DUP4 ADD DUP3 PUSH2 0x81D JUMP JUMPDEST POP POP JUMPDEST POP POP POP JUMP JUMPDEST PUSH0 DUP3 DUP3 SHR SWAP1 POP SWAP3 SWAP2 POP POP JUMP JUMPDEST PUSH0 PUSH2 0x8A0 PUSH0 NOT DUP5 PUSH1 0x8 MUL PUSH2 0x885 JUMP JUMPDEST NOT DUP1 DUP4 AND SWAP2 POP POP SWAP3 SWAP2 POP POP JUMP JUMPDEST PUSH0 PUSH2 0x8B8 DUP4 DUP4 PUSH2 0x891 JUMP JUMPDEST SWAP2 POP DUP3 PUSH1 0x2 MUL DUP3 OR SWAP1 POP SWAP3 SWAP2 POP POP JUMP JUMPDEST PUSH2 0x8D1 DUP3 PUSH2 0x4E1 JUMP JUMPDEST PUSH8 0xFFFFFFFFFFFFFFFF DUP2 GT ISZERO PUSH2 0x8EA JUMPI PUSH2 0x8E9 PUSH2 0x376 JUMP JUMPDEST JUMPDEST PUSH2 0x8F4 DUP3 SLOAD PUSH2 0x6F8 JUMP JUMPDEST PUSH2 0x8FF DUP3 DUP3 DUP6 PUSH2 0x83F JUMP JUMPDEST PUSH0 PUSH1 0x20 SWAP1 POP PUSH1 0x1F DUP4 GT PUSH1 0x1 DUP2 EQ PUSH2 0x930 JUMPI PUSH0 DUP5 ISZERO PUSH2 0x91E JUMPI DUP3 DUP8 ADD MLOAD SWAP1 POP JUMPDEST PUSH2 0x928 DUP6 DUP3 PUSH2 0x8AD JUMP JUMPDEST DUP7 SSTORE POP PUSH2 0x98F JUMP JUMPDEST PUSH1 0x1F NOT DUP5 AND PUSH2 0x93E DUP7 PUSH2 0x728 JUMP JUMPDEST PUSH0 JUMPDEST DUP3 DUP2 LT ISZERO PUSH2 0x965 JUMPI DUP5 DUP10 ADD MLOAD DUP3 SSTORE PUSH1 0x1 DUP3 ADD SWAP2 POP PUSH1 0x20 DUP6 ADD SWAP5 POP PUSH1 0x20 DUP2 ADD SWAP1 POP PUSH2 0x940 JUMP JUMPDEST DUP7 DUP4 LT ISZERO PUSH2 0x982 JUMPI DUP5 DUP10 ADD MLOAD PUSH2 0x97E PUSH1 0x1F DUP10 AND DUP3 PUSH2 0x891 JUMP JUMPDEST DUP4 SSTORE POP JUMPDEST PUSH1 0x1 PUSH1 0x2 DUP9 MUL ADD DUP9 SSTORE POP POP POP JUMPDEST POP POP POP POP POP POP JUMP INVALID LOG2 PUSH5 0x6970667358 0x22 SLT KECCAK256 EXTCODESIZE PUSH11 0xDA74C39E2A9AABB3602676 0xBD REVERT DUP12 PUSH19 0x33ACB0C071026AADFD06118ECDCA264736F6C PUSH4 0x4300081E STOP CALLER "
		},
		"gasEstimates": {
			"creation": {
				"codeDepositCost": "501800",
				"executionCost": "535",
				"totalCost": "502335"
			},
			"external": {
				"appendMessage(string)": "infinite",
				"sayHello(uint256)": "infinite",
				"setMessage(string,uint256)": "infinite"
			}
		},
		"methodIdentifiers": {
			"appendMessage(string)": "01031c1a",
			"sayHello(uint256)": "42257b31",
			"setMessage(string,uint256)": "c6baff55"
		}
	},
	"abi": [
		{
			"inputs": [
				{
					"internalType": "string",
					"name": "_message",
					"type": "string"
				}
			],
			"name": "appendMessage",
			"outputs": [
				{
					"internalType": "string",
					"name": "",
					"type": "string"
				}
			],
			"stateMutability": "pure",
			"type": "function"
		},
		{
			"inputs": [
				{
					"internalType": "uint256",
					"name": "_id",
					"type": "uint256"
				}
			],
			"name": "sayHello",
			"outputs": [
				{
					"internalType": "string",
					"name": "",
					"type": "string"
				}
			],
			"stateMutability": "view",
			"type": "function"
		},
		{
			"inputs": [
				{
					"internalType": "string",
					"name": "_message",
					"type": "string"
				},
				{
					"internalType": "uint256",
					"name": "_id",
					"type": "uint256"
				}
			],
			"name": "setMessage",
			"outputs": [],
			"stateMutability": "nonpayable",
			"type": "function"
		}
	]
}